{
    "contractName": "Token",
    "abi": [
        {
            "inputs": [
                {
                    "internalType": "string",
                    "name": "tokenName",
                    "type": "string"
                },
                {
                    "internalType": "string",
                    "name": "tokenSymbol",
                    "type": "string"
                },
                {
                    "internalType": "uint8",
                    "name": "tokenDecimals",
                    "type": "uint8"
                },
                {
                    "internalType": "uint256",
                    "name": "tokenTotalSupply",
                    "type": "uint256"
                },
                {
                    "internalType": "uint256",
                    "name": "tokenMaxSupply",
                    "type": "uint256"
                }
            ],
            "stateMutability": "nonpayable",
            "type": "constructor"
        },
        {
            "anonymous": false,
            "inputs": [
                {
                    "indexed": true,
                    "internalType": "address",
                    "name": "owner",
                    "type": "address"
                },
                {
                    "indexed": true,
                    "internalType": "address",
                    "name": "spender",
                    "type": "address"
                },
                {
                    "indexed": false,
                    "internalType": "uint256",
                    "name": "value",
                    "type": "uint256"
                }
            ],
            "name": "Approval",
            "type": "event"
        },
        {
            "anonymous": false,
            "inputs": [
                {
                    "indexed": true,
                    "internalType": "address",
                    "name": "previousOwner",
                    "type": "address"
                },
                {
                    "indexed": true,
                    "internalType": "address",
                    "name": "newOwner",
                    "type": "address"
                }
            ],
            "name": "OwnershipTransferred",
            "type": "event"
        },
        {
            "anonymous": false,
            "inputs": [
                {
                    "indexed": true,
                    "internalType": "address",
                    "name": "from",
                    "type": "address"
                },
                {
                    "indexed": true,
                    "internalType": "address",
                    "name": "to",
                    "type": "address"
                },
                {
                    "indexed": false,
                    "internalType": "uint256",
                    "name": "value",
                    "type": "uint256"
                }
            ],
            "name": "Transfer",
            "type": "event"
        },
        {
            "inputs": [],
            "name": "owner",
            "outputs": [
                {
                    "internalType": "address",
                    "name": "",
                    "type": "address"
                }
            ],
            "stateMutability": "view",
            "type": "function"
        },
        {
            "inputs": [],
            "name": "renounceOwnership",
            "outputs": [],
            "stateMutability": "nonpayable",
            "type": "function"
        },
        {
            "inputs": [
                {
                    "internalType": "address",
                    "name": "newOwner",
                    "type": "address"
                }
            ],
            "name": "transferOwnership",
            "outputs": [],
            "stateMutability": "nonpayable",
            "type": "function"
        },
        {
            "inputs": [
                {
                    "internalType": "address",
                    "name": "account",
                    "type": "address"
                }
            ],
            "name": "balanceOf",
            "outputs": [
                {
                    "internalType": "uint256",
                    "name": "",
                    "type": "uint256"
                }
            ],
            "stateMutability": "view",
            "type": "function"
        },
        {
            "inputs": [],
            "name": "name",
            "outputs": [
                {
                    "internalType": "string",
                    "name": "",
                    "type": "string"
                }
            ],
            "stateMutability": "view",
            "type": "function"
        },
        {
            "inputs": [],
            "name": "totalSupply",
            "outputs": [
                {
                    "internalType": "uint256",
                    "name": "",
                    "type": "uint256"
                }
            ],
            "stateMutability": "view",
            "type": "function"
        },
        {
            "inputs": [],
            "name": "maxSupply",
            "outputs": [
                {
                    "internalType": "uint256",
                    "name": "",
                    "type": "uint256"
                }
            ],
            "stateMutability": "view",
            "type": "function"
        },
        {
            "inputs": [],
            "name": "decimals",
            "outputs": [
                {
                    "internalType": "uint8",
                    "name": "",
                    "type": "uint8"
                }
            ],
            "stateMutability": "view",
            "type": "function"
        },
        {
            "inputs": [],
            "name": "symbol",
            "outputs": [
                {
                    "internalType": "string",
                    "name": "",
                    "type": "string"
                }
            ],
            "stateMutability": "view",
            "type": "function"
        },
        {
            "inputs": [
                {
                    "internalType": "address",
                    "name": "account",
                    "type": "address"
                },
                {
                    "internalType": "uint256",
                    "name": "amount",
                    "type": "uint256"
                }
            ],
            "name": "mint",
            "outputs": [
                {
                    "internalType": "bool",
                    "name": "",
                    "type": "bool"
                }
            ],
            "stateMutability": "nonpayable",
            "type": "function"
        },
        {
            "inputs": [
                {
                    "internalType": "address",
                    "name": "account",
                    "type": "address"
                },
                {
                    "internalType": "uint256",
                    "name": "amount",
                    "type": "uint256"
                }
            ],
            "name": "burn",
            "outputs": [
                {
                    "internalType": "bool",
                    "name": "",
                    "type": "bool"
                }
            ],
            "stateMutability": "nonpayable",
            "type": "function"
        },
        {
            "inputs": [
                {
                    "internalType": "address",
                    "name": "recipient",
                    "type": "address"
                },
                {
                    "internalType": "uint256",
                    "name": "amount",
                    "type": "uint256"
                }
            ],
            "name": "transfer",
            "outputs": [
                {
                    "internalType": "bool",
                    "name": "",
                    "type": "bool"
                }
            ],
            "stateMutability": "nonpayable",
            "type": "function"
        },
        {
            "inputs": [],
            "name": "getOwner",
            "outputs": [
                {
                    "internalType": "address",
                    "name": "",
                    "type": "address"
                }
            ],
            "stateMutability": "view",
            "type": "function"
        },
        {
            "inputs": [
                {
                    "internalType": "address",
                    "name": "owner",
                    "type": "address"
                },
                {
                    "internalType": "address",
                    "name": "spender",
                    "type": "address"
                }
            ],
            "name": "allowance",
            "outputs": [
                {
                    "internalType": "uint256",
                    "name": "",
                    "type": "uint256"
                }
            ],
            "stateMutability": "view",
            "type": "function"
        },
        {
            "inputs": [
                {
                    "internalType": "address",
                    "name": "spender",
                    "type": "address"
                },
                {
                    "internalType": "uint256",
                    "name": "amount",
                    "type": "uint256"
                }
            ],
            "name": "approve",
            "outputs": [
                {
                    "internalType": "bool",
                    "name": "",
                    "type": "bool"
                }
            ],
            "stateMutability": "nonpayable",
            "type": "function"
        },
        {
            "inputs": [
                {
                    "internalType": "address",
                    "name": "spender",
                    "type": "address"
                },
                {
                    "internalType": "address",
                    "name": "recipient",
                    "type": "address"
                },
                {
                    "internalType": "uint256",
                    "name": "amount",
                    "type": "uint256"
                }
            ],
            "name": "transferFrom",
            "outputs": [
                {
                    "internalType": "bool",
                    "name": "",
                    "type": "bool"
                }
            ],
            "stateMutability": "nonpayable",
            "type": "function"
        },
        {
            "inputs": [
                {
                    "internalType": "address",
                    "name": "spender",
                    "type": "address"
                },
                {
                    "internalType": "uint256",
                    "name": "amount",
                    "type": "uint256"
                }
            ],
            "name": "increaseAllowance",
            "outputs": [
                {
                    "internalType": "bool",
                    "name": "",
                    "type": "bool"
                }
            ],
            "stateMutability": "nonpayable",
            "type": "function"
        },
        {
            "inputs": [
                {
                    "internalType": "address",
                    "name": "spender",
                    "type": "address"
                },
                {
                    "internalType": "uint256",
                    "name": "amount",
                    "type": "uint256"
                }
            ],
            "name": "decreaseAllowance",
            "outputs": [
                {
                    "internalType": "bool",
                    "name": "",
                    "type": "bool"
                }
            ],
            "stateMutability": "nonpayable",
            "type": "function"
        }
    ],
    "bytecode": "0x60806040523480156200001157600080fd5b50604051620025ca380380620025ca8339818101604052810190620000379190620004d6565b336000806101000a81548173ffffffffffffffffffffffffffffffffffffffff021916908373ffffffffffffffffffffffffffffffffffffffff16021790555060008054906101000a900473ffffffffffffffffffffffffffffffffffffffff1673ffffffffffffffffffffffffffffffffffffffff16600073ffffffffffffffffffffffffffffffffffffffff167f8be0079c531659141344cd1fd0a4f28419497f9722a3daafe3b4186f6b6457e060405160405180910390a384600190805190602001906200010a92919062000210565b5083600290805190602001906200012392919062000210565b5082600360006101000a81548160ff021916908360ff1602179055508260ff16600a6200015191906200071f565b826200015e919062000770565b6004819055508260ff16600a6200017691906200071f565b8162000183919062000770565b60058190555081600660006200019e620001e760201b60201c565b73ffffffffffffffffffffffffffffffffffffffff1673ffffffffffffffffffffffffffffffffffffffff16815260200190815260200160002081905550505050505062000836565b60008060009054906101000a900473ffffffffffffffffffffffffffffffffffffffff16905090565b8280546200021e9062000800565b90600052602060002090601f0160209004810192826200024257600085556200028e565b82601f106200025d57805160ff19168380011785556200028e565b828001600101855582156200028e579182015b828111156200028d57825182559160200191906001019062000270565b5b5090506200029d9190620002a1565b5090565b5b80821115620002bc576000816000905550600101620002a2565b5090565b6000604051905090565b600080fd5b600080fd5b600080fd5b600080fd5b6000601f19601f8301169050919050565b7f4e487b7100000000000000000000000000000000000000000000000000000000600052604160045260246000fd5b6200032982620002de565b810181811067ffffffffffffffff821117156200034b576200034a620002ef565b5b80604052505050565b600062000360620002c0565b90506200036e82826200031e565b919050565b600067ffffffffffffffff821115620003915762000390620002ef565b5b6200039c82620002de565b9050602081019050919050565b60005b83811015620003c9578082015181840152602081019050620003ac565b83811115620003d9576000848401525b50505050565b6000620003f6620003f08462000373565b62000354565b905082815260208101848484011115620004155762000414620002d9565b5b62000422848285620003a9565b509392505050565b600082601f830112620004425762000441620002d4565b5b815162000454848260208601620003df565b91505092915050565b600060ff82169050919050565b62000475816200045d565b81146200048157600080fd5b50565b60008151905062000495816200046a565b92915050565b6000819050919050565b620004b0816200049b565b8114620004bc57600080fd5b50565b600081519050620004d081620004a5565b92915050565b600080600080600060a08688031215620004f557620004f4620002ca565b5b600086015167ffffffffffffffff811115620005165762000515620002cf565b5b62000524888289016200042a565b955050602086015167ffffffffffffffff811115620005485762000547620002cf565b5b62000556888289016200042a565b9450506040620005698882890162000484565b93505060606200057c88828901620004bf565b92505060806200058f88828901620004bf565b9150509295509295909350565b7f4e487b7100000000000000000000000000000000000000000000000000000000600052601160045260246000fd5b60008160011c9050919050565b6000808291508390505b60018511156200062a578086048111156200060257620006016200059c565b5b6001851615620006125780820291505b80810290506200062285620005cb565b9450620005e2565b94509492505050565b60008262000645576001905062000718565b8162000655576000905062000718565b81600181146200066e57600281146200067957620006af565b600191505062000718565b60ff8411156200068e576200068d6200059c565b5b8360020a915084821115620006a857620006a76200059c565b5b5062000718565b5060208310610133831016604e8410600b8410161715620006e95782820a905083811115620006e357620006e26200059c565b5b62000718565b620006f88484846001620005d8565b925090508184048111156200071257620007116200059c565b5b81810290505b9392505050565b60006200072c826200049b565b915062000739836200049b565b9250620007687fffffffffffffffffffffffffffffffffffffffffffffffffffffffffffffffff848462000633565b905092915050565b60006200077d826200049b565b91506200078a836200049b565b9250817fffffffffffffffffffffffffffffffffffffffffffffffffffffffffffffffff0483118215151615620007c657620007c56200059c565b5b828202905092915050565b7f4e487b7100000000000000000000000000000000000000000000000000000000600052602260045260246000fd5b600060028204905060018216806200081957607f821691505b6020821081141562000830576200082f620007d1565b5b50919050565b611d8480620008466000396000f3fe608060405234801561001057600080fd5b50600436106101165760003560e01c8063893d20e8116100a2578063a457c2d711610071578063a457c2d7146102f9578063a9059cbb14610329578063d5abeb0114610359578063dd62ed3e14610377578063f2fde38b146103a757610116565b8063893d20e81461026f5780638da5cb5b1461028d57806395d89b41146102ab5780639dc29fac146102c957610116565b8063313ce567116100e9578063313ce567146101b757806339509351146101d557806340c10f191461020557806370a0823114610235578063715018a61461026557610116565b806306fdde031461011b578063095ea7b31461013957806318160ddd1461016957806323b872dd14610187575b600080fd5b6101236103c3565b604051610130919061149c565b60405180910390f35b610153600480360381019061014e9190611557565b610455565b60405161016091906115b2565b60405180910390f35b61017161046c565b60405161017e91906115dc565b60405180910390f35b6101a1600480360381019061019c91906115f7565b610476565b6040516101ae91906115b2565b60405180910390f35b6101bf6105df565b6040516101cc9190611666565b60405180910390f35b6101ef60048036038101906101ea9190611557565b6105f6565b6040516101fc91906115b2565b60405180910390f35b61021f600480360381019061021a9190611557565b610694565b60405161022c91906115b2565b60405180910390f35b61024f600480360381019061024a9190611681565b610738565b60405161025c91906115dc565b60405180910390f35b61026d610781565b005b6102776108cd565b60405161028491906116bd565b60405180910390f35b6102956108dc565b6040516102a291906116bd565b60405180910390f35b6102b3610905565b6040516102c0919061149c565b60405180910390f35b6102e360048036038101906102de9190611557565b610997565b6040516102f091906115b2565b60405180910390f35b610313600480360381019061030e9190611557565b6109ad565b60405161032091906115b2565b60405180910390f35b610343600480360381019061033e9190611557565b610a4b565b60405161035091906115b2565b60405180910390f35b610361610a62565b60405161036e91906115dc565b60405180910390f35b610391600480360381019061038c91906116d8565b610a6c565b60405161039e91906115dc565b60405180910390f35b6103c160048036038101906103bc9190611681565b610af3565b005b6060600180546103d290611747565b80601f01602080910402602001604051908101604052809291908181526020018280546103fe90611747565b801561044b5780601f106104205761010080835404028352916020019161044b565b820191906000526020600020905b81548152906001019060200180831161042e57829003601f168201915b5050505050905090565b6000610462338484610b8d565b6001905092915050565b6000600454905090565b600081600760008673ffffffffffffffffffffffffffffffffffffffff1673ffffffffffffffffffffffffffffffffffffffff16815260200190815260200160002060003373ffffffffffffffffffffffffffffffffffffffff1673ffffffffffffffffffffffffffffffffffffffff168152602001908152602001600020541015610537576040517f08c379a000000000000000000000000000000000000000000000000000000000815260040161052e906117eb565b60405180910390fd5b610542848484610d58565b6105d4843384600760008973ffffffffffffffffffffffffffffffffffffffff1673ffffffffffffffffffffffffffffffffffffffff16815260200190815260200160002060003373ffffffffffffffffffffffffffffffffffffffff1673ffffffffffffffffffffffffffffffffffffffff168152602001908152602001600020546105cf919061183a565b610b8d565b600190509392505050565b6000600360009054906101000a900460ff16905090565b600061068a338484600760003373ffffffffffffffffffffffffffffffffffffffff1673ffffffffffffffffffffffffffffffffffffffff16815260200190815260200160002060008873ffffffffffffffffffffffffffffffffffffffff1673ffffffffffffffffffffffffffffffffffffffff16815260200190815260200160002054610685919061186e565b610b8d565b6001905092915050565b60003373ffffffffffffffffffffffffffffffffffffffff1660008054906101000a900473ffffffffffffffffffffffffffffffffffffffff1673ffffffffffffffffffffffffffffffffffffffff1614610724576040517f08c379a000000000000000000000000000000000000000000000000000000000815260040161071b90611910565b60405180910390fd5b61072e8383610fd2565b6001905092915050565b6000600660008373ffffffffffffffffffffffffffffffffffffffff1673ffffffffffffffffffffffffffffffffffffffff168152602001908152602001600020549050919050565b3373ffffffffffffffffffffffffffffffffffffffff1660008054906101000a900473ffffffffffffffffffffffffffffffffffffffff1673ffffffffffffffffffffffffffffffffffffffff161461080f576040517f08c379a000000000000000000000000000000000000000000000000000000000815260040161080690611910565b60405180910390fd5b600073ffffffffffffffffffffffffffffffffffffffff1660008054906101000a900473ffffffffffffffffffffffffffffffffffffffff1673ffffffffffffffffffffffffffffffffffffffff167f8be0079c531659141344cd1fd0a4f28419497f9722a3daafe3b4186f6b6457e060405160405180910390a360008060006101000a81548173ffffffffffffffffffffffffffffffffffffffff021916908373ffffffffffffffffffffffffffffffffffffffff160217905550565b60006108d76108dc565b905090565b60008060009054906101000a900473ffffffffffffffffffffffffffffffffffffffff16905090565b60606002805461091490611747565b80601f016020809104026020016040519081016040528092919081815260200182805461094090611747565b801561098d5780601f106109625761010080835404028352916020019161098d565b820191906000526020600020905b81548152906001019060200180831161097057829003601f168201915b5050505050905090565b60006109a3838361116f565b6001905092915050565b6000610a41338484600760003373ffffffffffffffffffffffffffffffffffffffff1673ffffffffffffffffffffffffffffffffffffffff16815260200190815260200160002060008873ffffffffffffffffffffffffffffffffffffffff1673ffffffffffffffffffffffffffffffffffffffff16815260200190815260200160002054610a3c919061183a565b610b8d565b6001905092915050565b6000610a58338484610d58565b6001905092915050565b6000600554905090565b6000600760008473ffffffffffffffffffffffffffffffffffffffff1673ffffffffffffffffffffffffffffffffffffffff16815260200190815260200160002060008373ffffffffffffffffffffffffffffffffffffffff1673ffffffffffffffffffffffffffffffffffffffff16815260200190815260200160002054905092915050565b3373ffffffffffffffffffffffffffffffffffffffff1660008054906101000a900473ffffffffffffffffffffffffffffffffffffffff1673ffffffffffffffffffffffffffffffffffffffff1614610b81576040517f08c379a0000000000000000000000000000000000000000000000000000000008152600401610b7890611910565b60405180910390fd5b610b8a816112d6565b50565b600073ffffffffffffffffffffffffffffffffffffffff168373ffffffffffffffffffffffffffffffffffffffff161415610bfd576040517f08c379a0000000000000000000000000000000000000000000000000000000008152600401610bf4906119a2565b60405180910390fd5b600073ffffffffffffffffffffffffffffffffffffffff168273ffffffffffffffffffffffffffffffffffffffff161415610c6d576040517f08c379a0000000000000000000000000000000000000000000000000000000008152600401610c6490611a34565b60405180910390fd5b80600760008573ffffffffffffffffffffffffffffffffffffffff1673ffffffffffffffffffffffffffffffffffffffff16815260200190815260200160002060008473ffffffffffffffffffffffffffffffffffffffff1673ffffffffffffffffffffffffffffffffffffffff168152602001908152602001600020819055508173ffffffffffffffffffffffffffffffffffffffff168373ffffffffffffffffffffffffffffffffffffffff167f8c5be1e5ebec7d5bd14f71427d1e84f3dd0314c0f7b2291e5b200ac8c7c3b92583604051610d4b91906115dc565b60405180910390a3505050565b82600073ffffffffffffffffffffffffffffffffffffffff168173ffffffffffffffffffffffffffffffffffffffff161415610dc9576040517f08c379a0000000000000000000000000000000000000000000000000000000008152600401610dc090611aa0565b60405180910390fd5b600073ffffffffffffffffffffffffffffffffffffffff168373ffffffffffffffffffffffffffffffffffffffff161415610e39576040517f08c379a0000000000000000000000000000000000000000000000000000000008152600401610e3090611b0c565b60405180910390fd5b81600660008673ffffffffffffffffffffffffffffffffffffffff1673ffffffffffffffffffffffffffffffffffffffff168152602001908152602001600020541015610ebb576040517f08c379a0000000000000000000000000000000000000000000000000000000008152600401610eb290611b9e565b60405180910390fd5b81600660008673ffffffffffffffffffffffffffffffffffffffff1673ffffffffffffffffffffffffffffffffffffffff1681526020019081526020016000206000828254610f0a919061183a565b9250508190555081600660008573ffffffffffffffffffffffffffffffffffffffff1673ffffffffffffffffffffffffffffffffffffffff1681526020019081526020016000206000828254610f60919061186e565b925050819055508273ffffffffffffffffffffffffffffffffffffffff168473ffffffffffffffffffffffffffffffffffffffff167fddf252ad1be2c89b69c2b068fc378daa952ba7f163c4a11628f55a4df523b3ef84604051610fc491906115dc565b60405180910390a350505050565b81600073ffffffffffffffffffffffffffffffffffffffff168173ffffffffffffffffffffffffffffffffffffffff161415611043576040517f08c379a000000000000000000000000000000000000000000000000000000000815260040161103a90611aa0565b60405180910390fd5b81600454611051919061186e565b6005541015611095576040517f08c379a000000000000000000000000000000000000000000000000000000000815260040161108c90611c0a565b60405180910390fd5b81600460008282546110a7919061186e565b9250508190555081600660008573ffffffffffffffffffffffffffffffffffffffff1673ffffffffffffffffffffffffffffffffffffffff16815260200190815260200160002060008282546110fd919061186e565b925050819055508273ffffffffffffffffffffffffffffffffffffffff16600073ffffffffffffffffffffffffffffffffffffffff167fddf252ad1be2c89b69c2b068fc378daa952ba7f163c4a11628f55a4df523b3ef8460405161116291906115dc565b60405180910390a3505050565b81600073ffffffffffffffffffffffffffffffffffffffff168173ffffffffffffffffffffffffffffffffffffffff1614156111e0576040517f08c379a00000000000000000000000000000000000000000000000000000000081526004016111d790611aa0565b60405180910390fd5b81600660008573ffffffffffffffffffffffffffffffffffffffff1673ffffffffffffffffffffffffffffffffffffffff168152602001908152602001600020541015611262576040517f08c379a000000000000000000000000000000000000000000000000000000000815260040161125990611c9c565b60405180910390fd5b81600660008573ffffffffffffffffffffffffffffffffffffffff1673ffffffffffffffffffffffffffffffffffffffff16815260200190815260200160002060008282546112b1919061183a565b9250508190555081600460008282546112ca919061183a565b92505081905550505050565b600073ffffffffffffffffffffffffffffffffffffffff168173ffffffffffffffffffffffffffffffffffffffff161415611346576040517f08c379a000000000000000000000000000000000000000000000000000000000815260040161133d90611d2e565b60405180910390fd5b8073ffffffffffffffffffffffffffffffffffffffff1660008054906101000a900473ffffffffffffffffffffffffffffffffffffffff1673ffffffffffffffffffffffffffffffffffffffff167f8be0079c531659141344cd1fd0a4f28419497f9722a3daafe3b4186f6b6457e060405160405180910390a3806000806101000a81548173ffffffffffffffffffffffffffffffffffffffff021916908373ffffffffffffffffffffffffffffffffffffffff16021790555050565b600081519050919050565b600082825260208201905092915050565b60005b8381101561143d578082015181840152602081019050611422565b8381111561144c576000848401525b50505050565b6000601f19601f8301169050919050565b600061146e82611403565b611478818561140e565b935061148881856020860161141f565b61149181611452565b840191505092915050565b600060208201905081810360008301526114b68184611463565b905092915050565b600080fd5b600073ffffffffffffffffffffffffffffffffffffffff82169050919050565b60006114ee826114c3565b9050919050565b6114fe816114e3565b811461150957600080fd5b50565b60008135905061151b816114f5565b92915050565b6000819050919050565b61153481611521565b811461153f57600080fd5b50565b6000813590506115518161152b565b92915050565b6000806040838503121561156e5761156d6114be565b5b600061157c8582860161150c565b925050602061158d85828601611542565b9150509250929050565b60008115159050919050565b6115ac81611597565b82525050565b60006020820190506115c760008301846115a3565b92915050565b6115d681611521565b82525050565b60006020820190506115f160008301846115cd565b92915050565b6000806000606084860312156116105761160f6114be565b5b600061161e8682870161150c565b935050602061162f8682870161150c565b925050604061164086828701611542565b9150509250925092565b600060ff82169050919050565b6116608161164a565b82525050565b600060208201905061167b6000830184611657565b92915050565b600060208284031215611697576116966114be565b5b60006116a58482850161150c565b91505092915050565b6116b7816114e3565b82525050565b60006020820190506116d260008301846116ae565b92915050565b600080604083850312156116ef576116ee6114be565b5b60006116fd8582860161150c565b925050602061170e8582860161150c565b9150509250929050565b7f4e487b7100000000000000000000000000000000000000000000000000000000600052602260045260246000fd5b6000600282049050600182168061175f57607f821691505b6020821081141561177357611772611718565b5b50919050565b7f596f752063616e6e6f74207370656e642074686174206d756368206f6e20746860008201527f6973206163636f756e7400000000000000000000000000000000000000000000602082015250565b60006117d5602a8361140e565b91506117e082611779565b604082019050919050565b60006020820190508181036000830152611804816117c8565b9050919050565b7f4e487b7100000000000000000000000000000000000000000000000000000000600052601160045260246000fd5b600061184582611521565b915061185083611521565b9250828210156118635761186261180b565b5b828203905092915050565b600061187982611521565b915061188483611521565b9250827fffffffffffffffffffffffffffffffffffffffffffffffffffffffffffffffff038211156118b9576118b861180b565b5b828201905092915050565b7f54686973206973207374726963746c7920666f72206f776e6572206f6e6c7900600082015250565b60006118fa601f8361140e565b9150611905826118c4565b602082019050919050565b60006020820190508181036000830152611929816118ed565b9050919050565b7f446576546f6b656e3a20617070726f76652063616e6e6f7420626520646f6e6560008201527f2066726f6d207a65726f20616464726573730000000000000000000000000000602082015250565b600061198c60328361140e565b915061199782611930565b604082019050919050565b600060208201905081810360008301526119bb8161197f565b9050919050565b7f446576546f6b656e3a20617070726f76652063616e6e6f7420626520746f207a60008201527f65726f2061646472657373000000000000000000000000000000000000000000602082015250565b6000611a1e602b8361140e565b9150611a29826119c2565b604082019050919050565b60006020820190508181036000830152611a4d81611a11565b9050919050565b7f456d7074792061646472657373206973206e6f7420616c6c6f77656400000000600082015250565b6000611a8a601c8361140e565b9150611a9582611a54565b602082019050919050565b60006020820190508181036000830152611ab981611a7d565b9050919050565b7f5472616e7366657220746f207a65726f20616464726573730000000000000000600082015250565b6000611af660188361140e565b9150611b0182611ac0565b602082019050919050565b60006020820190508181036000830152611b2581611ae9565b9050919050565b7f43616e74207472616e73666572206d6f7265207468616e20796f75722061636360008201527f6f756e7420686f6c647300000000000000000000000000000000000000000000602082015250565b6000611b88602a8361140e565b9150611b9382611b2c565b604082019050919050565b60006020820190508181036000830152611bb781611b7b565b9050919050565b7f596f75277665207265616368656420746865206d617820737570706c79000000600082015250565b6000611bf4601d8361140e565b9150611bff82611bbe565b602082019050919050565b60006020820190508181036000830152611c2381611be7565b9050919050565b7f43616e6e6f74206275726e206d6f7265207468616e20746865206163636f756e60008201527f74206f776e730000000000000000000000000000000000000000000000000000602082015250565b6000611c8660268361140e565b9150611c9182611c2a565b604082019050919050565b60006020820190508181036000830152611cb581611c79565b9050919050565b7f4f776e61626c653a206e6577206f776e657220697320746865207a65726f206160008201527f6464726573730000000000000000000000000000000000000000000000000000602082015250565b6000611d1860268361140e565b9150611d2382611cbc565b604082019050919050565b60006020820190508181036000830152611d4781611d0b565b905091905056fea2646970667358221220579e869cfee8a7dde42b6239d55bd62b3a538e47584a5a7ad8270432809b006064736f6c63430008090033",
    "immutableReferences": {},
    "source": "// SPDX-License-Identifier: MIT\r\npragma solidity ^0.8.4;\r\n\r\ninterface IBEP20 {\r\n  function totalSupply() external view returns (uint256);\r\n  function decimals() external view returns (uint8);\r\n  function symbol() external view returns (string memory);\r\n  function name() external view returns (string memory);\r\n  function getOwner() external view returns (address);\r\n  function balanceOf(address account) external view returns (uint256);\r\n  function transfer(address recipient, uint256 amount) external returns (bool);\r\n  function allowance(address _owner, address spender) external view returns (uint256);\r\n  function approve(address spender, uint256 amount) external returns (bool);\r\n  function transferFrom(address sender, address recipient, uint256 amount) external returns (bool);\r\n  event Transfer(address indexed from, address indexed to, uint256 value);\r\n  event Approval(address indexed owner, address indexed spender, uint256 value);\r\n}\r\n\r\nabstract contract Ownable {\r\n  address private _owner;\r\n\r\n  event OwnershipTransferred(address indexed previousOwner, address indexed newOwner);\r\n\r\n  constructor ()  {\r\n    _owner = msg.sender;\r\n    emit OwnershipTransferred(address(0), _owner);\r\n  }\r\n  function owner() public view returns (address) {\r\n    return _owner;\r\n  }\r\n  modifier onlyOwner() {\r\n    require(_owner == msg.sender, \"This is strictly for owner only\");\r\n    _;\r\n  }\r\n\r\n  function renounceOwnership() public onlyOwner {\r\n    emit OwnershipTransferred(_owner, address(0));\r\n    _owner = address(0);\r\n  }\r\n\r\n  function transferOwnership(address newOwner) public onlyOwner {\r\n    _transferOwnership(newOwner);\r\n  }\r\n  \r\n  function _transferOwnership(address newOwner) internal {\r\n    require(newOwner != address(0), \"Ownable: new owner is the zero address\");\r\n    emit OwnershipTransferred(_owner, newOwner);\r\n    _owner = newOwner;\r\n  }\r\n}\r\n\r\n\r\ncontract Token is Ownable, IBEP20 {\r\n    \r\n  string private _name;\r\n  string private _symbol;\r\n  uint8 private _decimals;\r\n  uint256 private _totalSupply;\r\n\r\n  uint256 private _maxSupply;\r\n\r\n  mapping(address => uint256) private _balanceOf;\r\n  mapping(address => mapping(address => uint256)) private _allowances;\r\n\r\n  constructor(string memory tokenName, string memory tokenSymbol, uint8 tokenDecimals, uint256 tokenTotalSupply, uint256 tokenMaxSupply){\r\n    _name = tokenName;\r\n    _symbol = tokenSymbol;\r\n    _decimals = tokenDecimals;\r\n    _totalSupply = tokenTotalSupply * 10 ** uint256(tokenDecimals);\r\n    _maxSupply = tokenMaxSupply * 10 ** uint256(tokenDecimals);\r\n\r\n    _balanceOf[owner()] = tokenTotalSupply;\r\n  }\r\n\r\n  modifier notEmptyAddress(address account) {\r\n        require(\r\n            account != address(0),\r\n            \"Empty address is not allowed\"\r\n        );\r\n        _;\r\n  }\r\n    function balanceOf(address account) override external view returns (uint256) {\r\n        return _balanceOf[account];\r\n    }\r\n  \r\n    function name() external override view returns (string memory) {\r\n        return _name;\r\n    }\r\n    \r\n  function totalSupply() override external view returns (uint256) {\r\n    return _totalSupply;\r\n  }\r\n  \r\n  function maxSupply() external view returns (uint256) {\r\n          return _maxSupply;\r\n  }\r\n  function decimals() override external view returns (uint8) {\r\n      return _decimals;\r\n  }\r\n  function symbol() override external view returns (string memory) {\r\n      return _symbol;\r\n  }\r\n\r\n function mint(address account, uint256 amount) onlyOwner external returns (bool) {\r\n  _mint(account, amount);\r\n  return true;\r\n }\r\n \r\n function burn(address account, uint256 amount) external  returns (bool) {\r\n   _burn(account, amount);\r\n   return true;\r\n }\r\n\r\n function _mint(address account, uint256 amount) notEmptyAddress(account) internal {\r\n    require(_maxSupply >= (_totalSupply+amount), \"You've reached the max supply\");\r\n    // Increase total supply\r\n    _totalSupply += amount;\r\n    // Add amount to the account balance using the balance mapping\r\n    _balanceOf[account] += amount;\r\n    // Emit our event to log the action\r\n    emit Transfer(address(0), account, amount);\r\n  }\r\n\r\n\r\n   function _burn(address account, uint256 amount) notEmptyAddress(account) internal {\r\n      require(_balanceOf[account] >= amount, \"Cannot burn more than the account owns\");\r\n\r\n      // Remove the amount from the account balance\r\n      _balanceOf[account] -= amount;\r\n      // Decrease totalSupply\r\n      _totalSupply -= amount;\r\n      // Emit event, use zero address as reciever\r\n      // emit Transfer(account, address(0), amount);\r\n    }\r\n\r\n\r\n  function _transfer(address sender, address recipient, uint256 amount) notEmptyAddress(sender) internal {\r\n    require(recipient != address(0), \"Transfer to zero address\");\r\n    require(_balanceOf[sender] >= amount, \"Cant transfer more than your account holds\");\r\n\r\n   _balanceOf[sender] -= amount;\r\n    _balanceOf[recipient] += amount;\r\n\r\n    emit Transfer(sender, recipient, amount);\r\n  }\r\n\r\n \r\n   function transfer(address recipient, uint256 amount) external virtual override returns (bool) {\r\n    _transfer(msg.sender, recipient, amount);\r\n    return true;\r\n  }\r\n\r\n  function getOwner() external view override  returns (address) {\r\n    return owner();\r\n  }\r\n\r\n  function allowance(address owner, address spender) override external view returns(uint256){\r\n     return _allowances[owner][spender];\r\n  }\r\n\r\n  function approve(address spender, uint256 amount) override external returns (bool) {\r\n     _approve(msg.sender, spender, amount);\r\n     return true;\r\n   }\r\n\r\n   function _approve(address owner, address spender, uint256 amount) internal {\r\n      require(owner != address(0), \"DevToken: approve cannot be done from zero address\");\r\n      require(spender != address(0), \"DevToken: approve cannot be to zero address\");\r\n      // Set the allowance of the spender address at the Owner mapping over accounts to the amount\r\n      _allowances[owner][spender] = amount;\r\n\r\n      emit Approval(owner,spender,amount);\r\n    }\r\n\r\n    function transferFrom(address spender, address recipient, uint256 amount) override  external returns(bool){\r\n      // Make sure spender is allowed the amount \r\n      require(_allowances[spender][msg.sender] >= amount, \"You cannot spend that much on this account\");\r\n      // Transfer first\r\n      _transfer(spender, recipient, amount);\r\n      // Reduce current allowance so a user cannot respend\r\n      _approve(spender, msg.sender, _allowances[spender][msg.sender] - amount);\r\n      return true;\r\n    }\r\n\r\n    function increaseAllowance(address spender, uint256 amount) public returns (bool) {\r\n      _approve(msg.sender, spender, _allowances[msg.sender][spender]+amount);\r\n      return true;\r\n    }\r\n\r\n    function decreaseAllowance(address spender, uint256 amount) public returns (bool) {\r\n      _approve(msg.sender, spender, _allowances[msg.sender][spender]-amount);\r\n      return true;\r\n    }\r\n  \r\n\r\n\r\n}\r\n",
    "sourcePath": "C:\\programming\\workspace\\solidity\\nft-token\\contracts\\Token.sol",
    "compiler": {
        "name": "solc",
        "version": "0.8.9+commit.e5eed63a.Emscripten.clang"
    },
    "schemaVersion": "3.4.3",
    "updatedAt": "2021-10-22T04:23:31.224Z",
    "devdoc": {
        "kind": "dev",
        "methods": {},
        "version": 1
    },
    "userdoc": {
        "kind": "user",
        "methods": {},
        "version": 1
    }
}